{
  "_format": "hh-sol-artifact-1",
  "contractName": "Staking",
  "sourceName": "contracts/Staking.sol",
  "abi": [
    {
      "inputs": [
        {
          "internalType": "uint256",
          "name": "_start",
          "type": "uint256"
        },
        {
          "internalType": "address",
          "name": "tokenAddress",
          "type": "address"
        }
      ],
      "stateMutability": "nonpayable",
      "type": "constructor"
    },
    {
      "inputs": [
        {
          "internalType": "address",
          "name": "owner",
          "type": "address"
        }
      ],
      "name": "OwnableInvalidOwner",
      "type": "error"
    },
    {
      "inputs": [
        {
          "internalType": "address",
          "name": "account",
          "type": "address"
        }
      ],
      "name": "OwnableUnauthorizedAccount",
      "type": "error"
    },
    {
      "inputs": [],
      "name": "ReentrancyGuardReentrantCall",
      "type": "error"
    },
    {
      "anonymous": false,
      "inputs": [
        {
          "indexed": false,
          "internalType": "string",
          "name": "key",
          "type": "string"
        },
        {
          "indexed": false,
          "internalType": "uint256",
          "name": "value",
          "type": "uint256"
        },
        {
          "indexed": false,
          "internalType": "string",
          "name": "newKey",
          "type": "string"
        },
        {
          "indexed": false,
          "internalType": "uint256",
          "name": "newValue",
          "type": "uint256"
        }
      ],
      "name": "LogTokenBalance",
      "type": "event"
    },
    {
      "anonymous": false,
      "inputs": [
        {
          "indexed": true,
          "internalType": "address",
          "name": "previousOwner",
          "type": "address"
        },
        {
          "indexed": true,
          "internalType": "address",
          "name": "newOwner",
          "type": "address"
        }
      ],
      "name": "OwnershipTransferred",
      "type": "event"
    },
    {
      "anonymous": false,
      "inputs": [
        {
          "indexed": true,
          "internalType": "address",
          "name": "user",
          "type": "address"
        },
        {
          "indexed": false,
          "internalType": "uint256",
          "name": "amount",
          "type": "uint256"
        }
      ],
      "name": "Staked",
      "type": "event"
    },
    {
      "anonymous": false,
      "inputs": [
        {
          "indexed": true,
          "internalType": "address",
          "name": "user",
          "type": "address"
        },
        {
          "indexed": false,
          "internalType": "uint256",
          "name": "amount",
          "type": "uint256"
        }
      ],
      "name": "Unstaked",
      "type": "event"
    },
    {
      "anonymous": false,
      "inputs": [
        {
          "indexed": true,
          "internalType": "address",
          "name": "user",
          "type": "address"
        },
        {
          "indexed": false,
          "internalType": "uint256",
          "name": "amount",
          "type": "uint256"
        }
      ],
      "name": "Withdraw",
      "type": "event"
    },
    {
      "inputs": [
        {
          "internalType": "uint256",
          "name": "amount",
          "type": "uint256"
        },
        {
          "internalType": "uint256",
          "name": "rate",
          "type": "uint256"
        }
      ],
      "name": "calculateReward",
      "outputs": [
        {
          "internalType": "uint256",
          "name": "",
          "type": "uint256"
        }
      ],
      "stateMutability": "pure",
      "type": "function"
    },
    {
      "inputs": [
        {
          "internalType": "uint256",
          "name": "amount",
          "type": "uint256"
        }
      ],
      "name": "depositRewards",
      "outputs": [],
      "stateMutability": "nonpayable",
      "type": "function"
    },
    {
      "inputs": [
        {
          "internalType": "uint256",
          "name": "",
          "type": "uint256"
        },
        {
          "internalType": "uint256",
          "name": "",
          "type": "uint256"
        }
      ],
      "name": "extraRewardRates",
      "outputs": [
        {
          "internalType": "uint256",
          "name": "",
          "type": "uint256"
        }
      ],
      "stateMutability": "view",
      "type": "function"
    },
    {
      "inputs": [],
      "name": "fee",
      "outputs": [
        {
          "internalType": "uint256",
          "name": "",
          "type": "uint256"
        }
      ],
      "stateMutability": "view",
      "type": "function"
    },
    {
      "inputs": [
        {
          "internalType": "uint256",
          "name": "leftPercent",
          "type": "uint256"
        },
        {
          "internalType": "uint256",
          "name": "lockPeriod",
          "type": "uint256"
        }
      ],
      "name": "getExtraRewardRateForExtendAPY",
      "outputs": [
        {
          "internalType": "uint256",
          "name": "",
          "type": "uint256"
        }
      ],
      "stateMutability": "view",
      "type": "function"
    },
    {
      "inputs": [],
      "name": "getMyStakedHistory",
      "outputs": [
        {
          "components": [
            {
              "internalType": "uint256",
              "name": "stakedAmount",
              "type": "uint256"
            },
            {
              "internalType": "uint256",
              "name": "withdrawAmount",
              "type": "uint256"
            },
            {
              "internalType": "uint256",
              "name": "rewardAmount",
              "type": "uint256"
            },
            {
              "internalType": "uint256",
              "name": "start",
              "type": "uint256"
            },
            {
              "internalType": "uint256",
              "name": "apy",
              "type": "uint256"
            },
            {
              "internalType": "uint256",
              "name": "rewardRate",
              "type": "uint256"
            }
          ],
          "internalType": "struct Staking.StakedData[]",
          "name": "",
          "type": "tuple[]"
        }
      ],
      "stateMutability": "view",
      "type": "function"
    },
    {
      "inputs": [
        {
          "internalType": "uint256",
          "name": "_start",
          "type": "uint256"
        },
        {
          "internalType": "uint256",
          "name": "lockPeriod",
          "type": "uint256"
        }
      ],
      "name": "hasLockPeriodPassed",
      "outputs": [
        {
          "internalType": "bool",
          "name": "",
          "type": "bool"
        }
      ],
      "stateMutability": "view",
      "type": "function"
    },
    {
      "inputs": [
        {
          "internalType": "uint256",
          "name": "rate",
          "type": "uint256"
        }
      ],
      "name": "isScaledRate",
      "outputs": [
        {
          "internalType": "bool",
          "name": "",
          "type": "bool"
        }
      ],
      "stateMutability": "pure",
      "type": "function"
    },
    {
      "inputs": [],
      "name": "owner",
      "outputs": [
        {
          "internalType": "address",
          "name": "",
          "type": "address"
        }
      ],
      "stateMutability": "view",
      "type": "function"
    },
    {
      "inputs": [],
      "name": "renounceOwnership",
      "outputs": [],
      "stateMutability": "nonpayable",
      "type": "function"
    },
    {
      "inputs": [
        {
          "internalType": "uint256",
          "name": "",
          "type": "uint256"
        }
      ],
      "name": "rewardRates",
      "outputs": [
        {
          "internalType": "uint256",
          "name": "",
          "type": "uint256"
        }
      ],
      "stateMutability": "view",
      "type": "function"
    },
    {
      "inputs": [
        {
          "internalType": "uint256",
          "name": "_fee",
          "type": "uint256"
        }
      ],
      "name": "setFee",
      "outputs": [],
      "stateMutability": "nonpayable",
      "type": "function"
    },
    {
      "inputs": [
        {
          "internalType": "uint256",
          "name": "lockPeriod",
          "type": "uint256"
        },
        {
          "internalType": "uint256",
          "name": "rate",
          "type": "uint256"
        }
      ],
      "name": "setRewardRate",
      "outputs": [],
      "stateMutability": "nonpayable",
      "type": "function"
    },
    {
      "inputs": [
        {
          "internalType": "uint256",
          "name": "amount",
          "type": "uint256"
        },
        {
          "internalType": "uint256",
          "name": "lockPeriod",
          "type": "uint256"
        }
      ],
      "name": "stake",
      "outputs": [],
      "stateMutability": "nonpayable",
      "type": "function"
    },
    {
      "inputs": [],
      "name": "start",
      "outputs": [
        {
          "internalType": "uint256",
          "name": "",
          "type": "uint256"
        }
      ],
      "stateMutability": "view",
      "type": "function"
    },
    {
      "inputs": [],
      "name": "token",
      "outputs": [
        {
          "internalType": "contract TokenA",
          "name": "",
          "type": "address"
        }
      ],
      "stateMutability": "view",
      "type": "function"
    },
    {
      "inputs": [
        {
          "internalType": "address",
          "name": "newOwner",
          "type": "address"
        }
      ],
      "name": "transferOwnership",
      "outputs": [],
      "stateMutability": "nonpayable",
      "type": "function"
    },
    {
      "inputs": [
        {
          "internalType": "uint256",
          "name": "lockPeriod",
          "type": "uint256"
        }
      ],
      "name": "unstake",
      "outputs": [
        {
          "internalType": "uint256",
          "name": "",
          "type": "uint256"
        }
      ],
      "stateMutability": "nonpayable",
      "type": "function"
    },
    {
      "inputs": [
        {
          "internalType": "uint256",
          "name": "",
          "type": "uint256"
        }
      ],
      "name": "userAddresses",
      "outputs": [
        {
          "internalType": "address",
          "name": "",
          "type": "address"
        }
      ],
      "stateMutability": "view",
      "type": "function"
    },
    {
      "inputs": [
        {
          "internalType": "address",
          "name": "",
          "type": "address"
        }
      ],
      "name": "users",
      "outputs": [
        {
          "internalType": "address",
          "name": "account",
          "type": "address"
        }
      ],
      "stateMutability": "view",
      "type": "function"
    },
    {
      "inputs": [
        {
          "internalType": "uint256",
          "name": "lockPeriod",
          "type": "uint256"
        },
        {
          "internalType": "uint256",
          "name": "leftStakePercent",
          "type": "uint256"
        }
      ],
      "name": "withdraw",
      "outputs": [],
      "stateMutability": "nonpayable",
      "type": "function"
    }
  ],
  "bytecode": "0x6080604052600160025534801561001557600080fd5b50604051612b7c380380612b7c8339818101604052810190610037919061050d565b33600073ffffffffffffffffffffffffffffffffffffffff168173ffffffffffffffffffffffffffffffffffffffff16036100aa5760006040517f1e4fbdf70000000000000000000000000000000000000000000000000000000081526004016100a1919061055c565b60405180910390fd5b6100b9816103b060201b60201c565b50600180819055508160038190555080600460006101000a81548173ffffffffffffffffffffffffffffffffffffffff021916908373ffffffffffffffffffffffffffffffffffffffff16021790555061138860066000601e815260200190815260200160002081905550611f4060066000603c81526020019081526020016000208190555061271060066000605a815260200190815260200160002081905550612ee0600660006078815260200190815260200160002081905550613a986006600060b48152602001908152602001600020819055506101f460076000601e81526020019081526020016000206000606481526020019081526020016000208190555060fa60076000601e815260200190815260200160002060006032815260200190815260200160002081905550607d60076000601e8152602001908152602001600020600060198152602001908152602001600020819055506103e860076000603c8152602001908152602001600020600060648152602001908152602001600020819055506101f460076000603c81526020019081526020016000206000603281526020019081526020016000208190555060fa60076000603c8152602001908152602001600020600060198152602001908152602001600020819055506107d060076000605a8152602001908152602001600020600060648152602001908152602001600020819055506103e860076000605a815260200190815260200160002060006032815260200190815260200160002081905550610bb86007600060788152602001908152602001600020600060648152602001908152602001600020819055506105dc600760006078815260200190815260200160002060006032815260200190815260200160002081905550610fa06007600060b48152602001908152602001600020600060648152602001908152602001600020819055506107d06007600060b48152602001908152602001600020600060328152602001908152602001600020819055505050610577565b60008060009054906101000a900473ffffffffffffffffffffffffffffffffffffffff169050816000806101000a81548173ffffffffffffffffffffffffffffffffffffffff021916908373ffffffffffffffffffffffffffffffffffffffff1602179055508173ffffffffffffffffffffffffffffffffffffffff168173ffffffffffffffffffffffffffffffffffffffff167f8be0079c531659141344cd1fd0a4f28419497f9722a3daafe3b4186f6b6457e060405160405180910390a35050565b600080fd5b6000819050919050565b61048c81610479565b811461049757600080fd5b50565b6000815190506104a981610483565b92915050565b600073ffffffffffffffffffffffffffffffffffffffff82169050919050565b60006104da826104af565b9050919050565b6104ea816104cf565b81146104f557600080fd5b50565b600081519050610507816104e1565b92915050565b6000806040838503121561052457610523610474565b5b60006105328582860161049a565b9250506020610543858286016104f8565b9150509250929050565b610556816104cf565b82525050565b6000602082019050610571600083018461054d565b92915050565b6125f6806105866000396000f3fe608060405234801561001057600080fd5b50600436106101375760003560e01c80638bdf67f2116100b8578063ddca3f431161007c578063ddca3f431461035e578063f011f2f41461037c578063f2caeb1e146103ac578063f2fde38b146103dc578063fc0c546a146103f8578063ffcf4b581461041657610137565b80638bdf67f2146102a65780638da5cb5b146102c2578063a87430ba146102e0578063be9a655514610310578063da8ce9481461032e57610137565b8063502c9bd5116100ff578063502c9bd51461020457806369fe0e2d14610234578063715018a6146102505780637b0472f01461025a5780638418e6791461027657610137565b806313ed08461461013c5780632e17de781461016c5780633462e0a81461019c578063441a3e70146101b857806348ef8e70146101d4575b600080fd5b61015660048036038101906101519190611b3c565b610434565b6040516101639190611b8b565b60405180910390f35b61018660048036038101906101819190611ba6565b610458565b6040516101939190611b8b565b60405180910390f35b6101b660048036038101906101b19190611b3c565b6108ff565b005b6101d260048036038101906101cd9190611b3c565b610994565b005b6101ee60048036038101906101e99190611ba6565b610f64565b6040516101fb9190611bee565b60405180910390f35b61021e60048036038101906102199190611ba6565b610f71565b60405161022b9190611c4a565b60405180910390f35b61024e60048036038101906102499190611ba6565b610fb0565b005b610258610fc2565b005b610274600480360381019061026f9190611b3c565b610fd6565b005b610290600480360381019061028b9190611b3c565b611445565b60405161029d9190611bee565b60405180910390f35b6102c060048036038101906102bb9190611ba6565b61145e565b005b6102ca61150c565b6040516102d79190611c4a565b60405180910390f35b6102fa60048036038101906102f59190611c91565b611535565b6040516103079190611c4a565b60405180910390f35b610318611573565b6040516103259190611b8b565b60405180910390f35b61034860048036038101906103439190611b3c565b611579565b6040516103559190611b8b565b60405180910390f35b61036661159e565b6040516103739190611b8b565b60405180910390f35b61039660048036038101906103919190611b3c565b6115a4565b6040516103a39190611b8b565b60405180910390f35b6103c660048036038101906103c19190611ba6565b6115d3565b6040516103d39190611b8b565b60405180910390f35b6103f660048036038101906103f19190611c91565b6115eb565b005b610400611671565b60405161040d9190611d1d565b60405180910390f35b61041e611697565b60405161042b9190611e71565b60405180910390f35b6000620186a082846104469190611ec2565b6104509190611f33565b905092915050565b6000610462611772565b81601e8114806104725750603c81145b8061047d5750605a81145b806104885750607881145b80610493575060b481145b6104d2576040517f08c379a00000000000000000000000000000000000000000000000000000000081526004016104c990611fc1565b60405180910390fd5b6000600860003373ffffffffffffffffffffffffffffffffffffffff1673ffffffffffffffffffffffffffffffffffffffff16815260200190815260200160002090506000806000805b846001018054905081101561070757600085600101828154811061054357610542611fe1565b5b906000526020600020906006020190508881600401541461056457506106fa565b61057681600301548260040154611445565b6105b5576040517f08c379a00000000000000000000000000000000000000000000000000000000081526004016105ac9061205c565b60405180910390fd5b60006105c982600001548360050154610434565b905060646002548284600001546105e0919061207c565b6105ea9190611ec2565b6105f49190611f33565b9450808260000154610606919061207c565b955085600460009054906101000a900473ffffffffffffffffffffffffffffffffffffffff1673ffffffffffffffffffffffffffffffffffffffff166370a08231306040518263ffffffff1660e01b81526004016106649190611c4a565b602060405180830381865afa158015610681573d6000803e3d6000fd5b505050506040513d601f19601f820116820180604052508101906106a591906120c5565b116106e5576040517f08c379a00000000000000000000000000000000000000000000000000000000081526004016106dc906121b0565b60405180910390fd5b6106ef87846117b8565b600193505050610707565b808060010191505061051c565b5080610748576040517f08c379a000000000000000000000000000000000000000000000000000000000815260040161073f90612242565b60405180910390fd5b600460009054906101000a900473ffffffffffffffffffffffffffffffffffffffff1673ffffffffffffffffffffffffffffffffffffffff1663a9059cbb3384866107939190612262565b6040518363ffffffff1660e01b81526004016107b0929190612296565b6020604051808303816000875af11580156107cf573d6000803e3d6000fd5b505050506040513d601f19601f820116820180604052508101906107f391906122eb565b50600460009054906101000a900473ffffffffffffffffffffffffffffffffffffffff1673ffffffffffffffffffffffffffffffffffffffff1663a9059cbb61083a61150c565b846040518363ffffffff1660e01b8152600401610858929190612296565b6020604051808303816000875af1158015610877573d6000803e3d6000fd5b505050506040513d601f19601f8201168201806040525081019061089b91906122eb565b503373ffffffffffffffffffffffffffffffffffffffff167f0f5bb82176feb1b5e747e28471aa92156a04d9f3ab9f45f28e2d704232b93f75846040516108e29190611b8b565b60405180910390a282955050505050506108fa6118fc565b919050565b610907611905565b81601e8114806109175750603c81145b806109225750605a81145b8061092d5750607881145b80610938575060b481145b610977576040517f08c379a000000000000000000000000000000000000000000000000000000000815260040161096e90611fc1565b60405180910390fd5b816006600085815260200190815260200160002081905550505050565b61099c611772565b81601e8114806109ac5750603c81145b806109b75750605a81145b806109c25750607881145b806109cd575060b481145b610a0c576040517f08c379a0000000000000000000000000000000000000000000000000000000008152600401610a0390611fc1565b60405180910390fd5b6000600860003373ffffffffffffffffffffffffffffffffffffffff1673ffffffffffffffffffffffffffffffffffffffff1681526020019081526020016000209050600073ffffffffffffffffffffffffffffffffffffffff168160000160009054906101000a900473ffffffffffffffffffffffffffffffffffffffff1673ffffffffffffffffffffffffffffffffffffffff1603610ae2576040517f08c379a0000000000000000000000000000000000000000000000000000000008152600401610ad990612364565b60405180910390fd5b60008080600090506000805b8560010180549050811015610d6f576000866001018281548110610b1557610b14611fe1565b5b9060005260206000209060060201905089816004015414610b365750610d62565b60019250610b4c81600301548260040154611445565b610b8b576040517f08c379a0000000000000000000000000000000000000000000000000000000008152600401610b82906123d0565b60405180910390fd5b610b9d81600001548260050154610434565b9450600060648a6064610bb09190612262565b8360000154610bbf9190611ec2565b610bc99190611f33565b90508581610bd7919061207c565b965086600460009054906101000a900473ffffffffffffffffffffffffffffffffffffffff1673ffffffffffffffffffffffffffffffffffffffff166370a08231306040518263ffffffff1660e01b8152600401610c359190611c4a565b602060405180830381865afa158015610c52573d6000803e3d6000fd5b505050506040513d601f19601f82011682018060405250810190610c7691906120c5565b11610cb6576040517f08c379a0000000000000000000000000000000000000000000000000000000008152600401610cad906121b0565b60405180910390fd5b610cc08a8c6115a4565b826005016000828254610cd3919061207c565b9250508190555085826002016000828254610cee919061207c565b925050819055508581610d01919061207c565b826001016000828254610d14919061207c565b9250508190555080826000016000828254610d2f9190612262565b92505081905550428260030181905550606460025488610d4f9190611ec2565b610d599190611f33565b94505050610d6f565b8080600101915050610aee565b5080610db0576040517f08c379a0000000000000000000000000000000000000000000000000000000008152600401610da790612242565b60405180910390fd5b600460009054906101000a900473ffffffffffffffffffffffffffffffffffffffff1673ffffffffffffffffffffffffffffffffffffffff1663a9059cbb338487610dfb9190612262565b6040518363ffffffff1660e01b8152600401610e18929190612296565b6020604051808303816000875af1158015610e37573d6000803e3d6000fd5b505050506040513d601f19601f82011682018060405250810190610e5b91906122eb565b50600460009054906101000a900473ffffffffffffffffffffffffffffffffffffffff1673ffffffffffffffffffffffffffffffffffffffff1663a9059cbb610ea261150c565b846040518363ffffffff1660e01b8152600401610ec0929190612296565b6020604051808303816000875af1158015610edf573d6000803e3d6000fd5b505050506040513d601f19601f82011682018060405250810190610f0391906122eb565b503373ffffffffffffffffffffffffffffffffffffffff167f884edad9ce6fa2440d8a54cc123490eb96d2768479d49ff9c7366125a942436485604051610f4a9190611b8b565b60405180910390a2505050505050610f606118fc565b5050565b6000606482119050919050565b60058181548110610f8157600080fd5b906000526020600020016000915054906101000a900473ffffffffffffffffffffffffffffffffffffffff1681565b610fb8611905565b8060028190555050565b610fca611905565b610fd4600061198c565b565b610fde611772565b80601e811480610fee5750603c81145b80610ff95750605a81145b806110045750607881145b8061100f575060b481145b61104e576040517f08c379a000000000000000000000000000000000000000000000000000000000815260040161104590611fc1565b60405180910390fd5b60008311611091576040517f08c379a00000000000000000000000000000000000000000000000000000000081526004016110889061243c565b60405180910390fd5b61109b3383611a50565b156110db576040517f08c379a00000000000000000000000000000000000000000000000000000000081526004016110d2906124ce565b60405180910390fd5b60006040518060c00160405280858152602001600081526020016000815260200142815260200184815260200160066000868152602001908152602001600020548152509050600073ffffffffffffffffffffffffffffffffffffffff16600860003373ffffffffffffffffffffffffffffffffffffffff1673ffffffffffffffffffffffffffffffffffffffff16815260200190815260200160002060000160009054906101000a900473ffffffffffffffffffffffffffffffffffffffff1673ffffffffffffffffffffffffffffffffffffffff160361129c5733600860003373ffffffffffffffffffffffffffffffffffffffff1673ffffffffffffffffffffffffffffffffffffffff16815260200190815260200160002060000160006101000a81548173ffffffffffffffffffffffffffffffffffffffff021916908373ffffffffffffffffffffffffffffffffffffffff1602179055506005339080600181540180825580915050600190039060005260206000200160009091909190916101000a81548173ffffffffffffffffffffffffffffffffffffffff021916908373ffffffffffffffffffffffffffffffffffffffff1602179055505b600860003373ffffffffffffffffffffffffffffffffffffffff1673ffffffffffffffffffffffffffffffffffffffff168152602001908152602001600020600101819080600181540180825580915050600190039060005260206000209060060201600090919091909150600082015181600001556020820151816001015560408201518160020155606082015181600301556080820151816004015560a082015181600501555050600460009054906101000a900473ffffffffffffffffffffffffffffffffffffffff1673ffffffffffffffffffffffffffffffffffffffff166323b872dd3330876040518463ffffffff1660e01b81526004016113a5939291906124ee565b6020604051808303816000875af11580156113c4573d6000803e3d6000fd5b505050506040513d601f19601f820116820180604052508101906113e891906122eb565b503373ffffffffffffffffffffffffffffffffffffffff167f9e71bc8eea02a63969f509818f2dafb9254532904319f9dbda79b67bd34a5f3d8560405161142f9190611b8b565b60405180910390a250506114416118fc565b5050565b60008183611453919061207c565b421015905092915050565b611466611905565b600460009054906101000a900473ffffffffffffffffffffffffffffffffffffffff1673ffffffffffffffffffffffffffffffffffffffff166323b872dd3330846040518463ffffffff1660e01b81526004016114c5939291906124ee565b6020604051808303816000875af11580156114e4573d6000803e3d6000fd5b505050506040513d601f19601f8201168201806040525081019061150891906122eb565b5050565b60008060009054906101000a900473ffffffffffffffffffffffffffffffffffffffff16905090565b60086020528060005260406000206000915090508060000160009054906101000a900473ffffffffffffffffffffffffffffffffffffffff16905081565b60035481565b6007602052816000526040600020602052806000526040600020600091509150505481565b60025481565b600060076000838152602001908152602001600020600084815260200190815260200160002054905092915050565b60066020528060005260406000206000915090505481565b6115f3611905565b600073ffffffffffffffffffffffffffffffffffffffff168173ffffffffffffffffffffffffffffffffffffffff16036116655760006040517f1e4fbdf700000000000000000000000000000000000000000000000000000000815260040161165c9190611c4a565b60405180910390fd5b61166e8161198c565b50565b600460009054906101000a900473ffffffffffffffffffffffffffffffffffffffff1681565b6060600860003373ffffffffffffffffffffffffffffffffffffffff1673ffffffffffffffffffffffffffffffffffffffff168152602001908152602001600020600101805480602002602001604051908101604052809291908181526020016000905b8282101561176957838290600052602060002090600602016040518060c00160405290816000820154815260200160018201548152602001600282015481526020016003820154815260200160048201548152602001600582015481525050815260200190600101906116fb565b50505050905090565b6002600154036117ae576040517f3ee5aeb500000000000000000000000000000000000000000000000000000000815260040160405180910390fd5b6002600181905550565b81600101805490508110611801576040517f08c379a00000000000000000000000000000000000000000000000000000000081526004016117f890612571565b60405180910390fd5b81600101600183600101805490506118199190612262565b8154811061182a57611829611fe1565b5b906000526020600020906006020182600101828154811061184e5761184d611fe1565b5b9060005260206000209060060201600082015481600001556001820154816001015560028201548160020155600382015481600301556004820154816004015560058201548160050155905050816001018054806118af576118ae612591565b5b600190038181906000526020600020906006020160008082016000905560018201600090556002820160009055600382016000905560048201600090556005820160009055505090555050565b60018081905550565b61190d611af9565b73ffffffffffffffffffffffffffffffffffffffff1661192b61150c565b73ffffffffffffffffffffffffffffffffffffffff161461198a5761194e611af9565b6040517f118cdaa70000000000000000000000000000000000000000000000000000000081526004016119819190611c4a565b60405180910390fd5b565b60008060009054906101000a900473ffffffffffffffffffffffffffffffffffffffff169050816000806101000a81548173ffffffffffffffffffffffffffffffffffffffff021916908373ffffffffffffffffffffffffffffffffffffffff1602179055508173ffffffffffffffffffffffffffffffffffffffff168173ffffffffffffffffffffffffffffffffffffffff167f8be0079c531659141344cd1fd0a4f28419497f9722a3daafe3b4186f6b6457e060405160405180910390a35050565b600080600860008573ffffffffffffffffffffffffffffffffffffffff1673ffffffffffffffffffffffffffffffffffffffff168152602001908152602001600020905060005b8160010180549050811015611aec5783826001018281548110611abd57611abc611fe1565b5b90600052602060002090600602016004015403611adf57600192505050611af3565b8080600101915050611a97565b5060009150505b92915050565b600033905090565b600080fd5b6000819050919050565b611b1981611b06565b8114611b2457600080fd5b50565b600081359050611b3681611b10565b92915050565b60008060408385031215611b5357611b52611b01565b5b6000611b6185828601611b27565b9250506020611b7285828601611b27565b9150509250929050565b611b8581611b06565b82525050565b6000602082019050611ba06000830184611b7c565b92915050565b600060208284031215611bbc57611bbb611b01565b5b6000611bca84828501611b27565b91505092915050565b60008115159050919050565b611be881611bd3565b82525050565b6000602082019050611c036000830184611bdf565b92915050565b600073ffffffffffffffffffffffffffffffffffffffff82169050919050565b6000611c3482611c09565b9050919050565b611c4481611c29565b82525050565b6000602082019050611c5f6000830184611c3b565b92915050565b611c6e81611c29565b8114611c7957600080fd5b50565b600081359050611c8b81611c65565b92915050565b600060208284031215611ca757611ca6611b01565b5b6000611cb584828501611c7c565b91505092915050565b6000819050919050565b6000611ce3611cde611cd984611c09565b611cbe565b611c09565b9050919050565b6000611cf582611cc8565b9050919050565b6000611d0782611cea565b9050919050565b611d1781611cfc565b82525050565b6000602082019050611d326000830184611d0e565b92915050565b600081519050919050565b600082825260208201905092915050565b6000819050602082019050919050565b611d6d81611b06565b82525050565b60c082016000820151611d896000850182611d64565b506020820151611d9c6020850182611d64565b506040820151611daf6040850182611d64565b506060820151611dc26060850182611d64565b506080820151611dd56080850182611d64565b5060a0820151611de860a0850182611d64565b50505050565b6000611dfa8383611d73565b60c08301905092915050565b6000602082019050919050565b6000611e1e82611d38565b611e288185611d43565b9350611e3383611d54565b8060005b83811015611e64578151611e4b8882611dee565b9750611e5683611e06565b925050600181019050611e37565b5085935050505092915050565b60006020820190508181036000830152611e8b8184611e13565b905092915050565b7f4e487b7100000000000000000000000000000000000000000000000000000000600052601160045260246000fd5b6000611ecd82611b06565b9150611ed883611b06565b9250828202611ee681611b06565b91508282048414831517611efd57611efc611e93565b5b5092915050565b7f4e487b7100000000000000000000000000000000000000000000000000000000600052601260045260246000fd5b6000611f3e82611b06565b9150611f4983611b06565b925082611f5957611f58611f04565b5b828204905092915050565b600082825260208201905092915050565b7f496e76616c6964206c6f636b20706572696f6400000000000000000000000000600082015250565b6000611fab601383611f64565b9150611fb682611f75565b602082019050919050565b60006020820190508181036000830152611fda81611f9e565b9050919050565b7f4e487b7100000000000000000000000000000000000000000000000000000000600052603260045260246000fd5b7f596f752063616e277420756e7374616b65207965740000000000000000000000600082015250565b6000612046601583611f64565b915061205182612010565b602082019050919050565b6000602082019050818103600083015261207581612039565b9050919050565b600061208782611b06565b915061209283611b06565b92508282019050808211156120aa576120a9611e93565b5b92915050565b6000815190506120bf81611b10565b92915050565b6000602082840312156120db576120da611b01565b5b60006120e9848285016120b0565b91505092915050565b7f546865207374616b696e6720636f6e747261637420646f6573206e6f7420686160008201527f766520656e6f75676820746f6b656e7320617661696c61626c6520666f72207760208201527f69746864726177616c2e20506c65617365207761697420756e74696c206d6f7260408201527f6520746f6b656e732061726520617661696c61626c652e000000000000000000606082015250565b600061219a607783611f64565b91506121a5826120f2565b608082019050919050565b600060208201905081810360008301526121c98161218d565b9050919050565b7f4e6f207374616b6520666f756e6420666f722074686973206c6f636b2070657260008201527f696f640000000000000000000000000000000000000000000000000000000000602082015250565b600061222c602383611f64565b9150612237826121d0565b604082019050919050565b6000602082019050818103600083015261225b8161221f565b9050919050565b600061226d82611b06565b915061227883611b06565b92508282039050818111156122905761228f611e93565b5b92915050565b60006040820190506122ab6000830185611c3b565b6122b86020830184611b7c565b9392505050565b6122c881611bd3565b81146122d357600080fd5b50565b6000815190506122e5816122bf565b92915050565b60006020828403121561230157612300611b01565b5b600061230f848285016122d6565b91505092915050565b7f55736572206e6f7420666f756e64000000000000000000000000000000000000600082015250565b600061234e600e83611f64565b915061235982612318565b602082019050919050565b6000602082019050818103600083015261237d81612341565b9050919050565b7f596f752063616e27742077697468647261772079657400000000000000000000600082015250565b60006123ba601683611f64565b91506123c582612384565b602082019050919050565b600060208201905081810360008301526123e9816123ad565b9050919050565b7f416d6f756e74206d7573742062652067726561746572207468616e2030000000600082015250565b6000612426601d83611f64565b9150612431826123f0565b602082019050919050565b6000602082019050818103600083015261245581612419565b9050919050565b7f416c7265616479207374616b656420666f722074686973206c6f636b2070657260008201527f696f640000000000000000000000000000000000000000000000000000000000602082015250565b60006124b8602383611f64565b91506124c38261245c565b604082019050919050565b600060208201905081810360008301526124e7816124ab565b9050919050565b60006060820190506125036000830186611c3b565b6125106020830185611c3b565b61251d6040830184611b7c565b949350505050565b7f496e76616c696420696e64657800000000000000000000000000000000000000600082015250565b600061255b600d83611f64565b915061256682612525565b602082019050919050565b6000602082019050818103600083015261258a8161254e565b9050919050565b7f4e487b7100000000000000000000000000000000000000000000000000000000600052603160045260246000fdfea2646970667358221220b3dc525a0f7f18e9dea9b40c143bdd19fa6c1e0c48d6b37530edd4176191346f64736f6c634300081b0033",
  "linkReferences": {},
  "deployedLinkReferences": {}
}